:020000040000FA
:0400000080317028B3
:100008007E1480312000911E0A280B286E28911238
:1000180023009D181028112815281D1D142815289F
:100028001A2819089D0190309D006E281908FA00B9
:100038007A08FB0020307502031823282428322868
:100048007B08FA007508503E8600013087007A0860
:1000580081000130FA007A08F5073428F5012428D0
:10006800710803193828392851287B088731042753
:10007800803108307B06031D422843285128750823
:1000880003194728482851287503031D4C284D2873
:100098004F28F50151280230F5020D307B0603196F
:1000A800562857285D280A307B06031D5C285D28E2
:1000B8006E282000ED01ED0A7108031964286528EF
:1000C8006E280D308731042780310A3087310427A4
:1000D80080316E287E1009008031722899308400A2
:1000E8008D3085005C308600003087000B308D3104
:1000F80080258031863084008D308500E030860090
:100108000030870008308D3180258031F001F10101
:10011800F201F301F401F501673084000030850035
:1001280007308D317A258031A03084000030850079
:1001380040308D317A2580312030840001308500AF
:1001480050308D317A2580317E1020008431392C51
:1001580020003008860087010108031DB428B5284F
:10016800B6287B2930088600870101088131802163
:1001780080312000B1003108C2004208031DC528A3
:10018800C628C7287B29C301C30A092943083007A1
:10019800B100310886008701010886000130870018
:1001A8000108D03EB200FF3003180030B300003021
:1001B80033020A3003193202031CE328E528013010
:1001C800E6280030B400B5013408C0003508C10085
:1001D800400841040319F128F2281A294308300776
:1001E800B100310886008701010881318021803102
:1001F8002000B2004308FF3E363E860087013208E1
:1002080081000130B1003108C3070A3043020318E6
:100218000E290F291A2943083007B1003108860032
:1002280087010108031D19291A29CA280A3043021F
:1002380003181F2920296D2943083007B100310808
:1002480086008701010803192A292B296D294729C6
:100258003608B1003108A0003708B2003208A10002
:1002680042088F31972780317F293630B100310815
:10027800A0004308FF3EB2003208A10042088731BF
:10028800BE2780317F2943083007B1003108860036
:10029800870101088600013087000108B200B30118
:1002A8003308003A031959297B293208423A0319BD
:1002B8002C29013A03192C290A3A031939292B3A0E
:1002C80003192C29013A03192C290A3A0319392947
:1002D8007B293630B1003108A0004308FF3EB20048
:1002E8003208A10042088731BE2780317F293008B3
:1002F80087314527803108002000AF00AE012F0864
:1003080086000130870030300106031D8C298D29B5
:10031800332A0130A6002608AF072F0886000130CF
:1003280087007830010603199A299B29A5292F08E7
:1003380086000130870058300106031DA429A5292D
:10034800332A0130A6002608AF070F2AAE0EF03078
:10035800AE052F088600013087000108D03EA600B0
:10036800FF3003180030A700003027020A300319B5
:100378002602031CC029C2290130C3290030A80065
:10038800A9012808AA002908AB002A082B04031988
:10039800CE29CF29D9292F088600013087000108E6
:1003A800D03EA6002608AE07A5292F0886000130F2
:1003B80087000108BF3EA600FF3003180030A700E1
:1003C800003027021A3003192602031CEC29EE29F3
:1003D8000130EF290030A800A9012808AC0029083D
:1003E800AD002C082D040319FA29FB29052A2F082A
:1003F8008600013087000108C93EA6002608AE071E
:10040800A5292F088600013087000108A93EA6000B
:100418002608AE07A5292F088600013087000108A5
:10042800031D172A182AAA292E083D2A2E08A600D5
:100438002608A0000A308D31DD2581312000A70073
:100448002708AE002F088600013087000108D03E3B
:10045800A6002608AE070130A6002608AF072F0819
:100468008600013087000108031D3B2A3C2A1A2A0E
:10047800182A080020003008860087010108031D9B
:10048800462A472A482AEB2A3008860087010108AD
:100498008131802182312000B1003108C400440834
:1004A800031D572A582A592AEB2A300A8600870141
:1004B80001080319602A612AEB2A300A860087019D
:1004C80001088131802182312000B1003108C30048
:1004D8004308B1003108B3003008023E86008701A6
:1004E80001080319782A792AEB2AC72A4330B10070
:1004F8003108A000A101A10A44088731BE27823132
:1005080033302000B1003108A000A101A10A44083D
:10051800863134268231200033088731852782319D
:100528000D3086317D2682310A3086317D26823132
:10053800EF2A4330B1003108A000A101A10A440804
:100548008731BE27823133302000B1003108A00046
:100558000230B2003208A1004408863134268231C4
:1005680020003308873185278231200034088731FD
:10057800852782310D3086317D2682310A308631D9
:100588007D268231EF2A3008023E86008701010865
:100598008600013087000108B100B2013208003A34
:1005A8000319D72AEB2A3108423A03197A2A013A61
:1005B80003197A2A143A03199D2A353A03197A2A13
:1005C800013A03197A2A143A03199D2AEB2A3008AA
:1005D800873145278231080020006408B600650885
:1005E800B7006608B800C801372B48083007B100C3
:1005F800310886008701010886000130870001085C
:10060800D03EB200FF3003180030B3000030330290
:100618000A3003193202031C122B142B0130152B3C
:100628000030B400B5013408C3003508C4004308DD
:1006380044040319202B212B482B48083007B1000C
:10064800310886008701010881318021823120002C
:10065800B2004808393E860087013208810001301F
:10066800B1003108C8070A30480203183C2B3D2B5B
:10067800482B48083007B100310886008701010877
:10068800031D472B482BF92A0330480203184D2B2A
:100698004E2B4F2B9D2B3908B1003108C7003A0863
:1006A800B1003108C5003B08B1003108C60045302B
:1006B800B1003108A000A101A10A47088731BE276F
:1006C800823139302000B1003108A0004608B2005C
:1006D8003208A1004708863134268231363020009E
:1006E800A7000030A8008F31402782312000C801C0
:1006F8008F2B203086317D26823120004808393EF4
:100708008600870101088731852782310130200062
:10071800B1003108C80746084802031C942B952BE2
:100728007D2B0D3086317D2682310A3086317D263B
:10073800823108004F302000B1003108B300663024
:10074800B1003108B4006630B1003108B500B60117
:100758003008860087010108031DB32BB42BE22B58
:100768002B30A0009030A100C030B1003108A200A9
:100778008E31D42683318F311A2783312030863148
:100788007D26833171080319CA2BCB2BD12B6E30F0
:100798002000B1003108B400B50133302000A700B3
:1007A8000030A8008F31402783310D3086317D26F7
:1007B80083310A3086317D268331382C300A860011
:1007C80087010108031DE92BEA2B342C0B2CF101BE
:1007D800382CF101F10A382C300886008701010A0B
:1007E8008600013087006E3001060319FC2BFD2BB3
:1007F800ED2B300886008701010A8600013087004A
:100808004E300106031D092C0A2CEB2BED2B30086A
:100818008600870101088600013087000108B100C1
:10082800B2013208003A03191A2C342C3108303A34
:100838000319EB2B013A0319ED2B773A0319EB2B2C
:10084800093A0319F02B1B3A0319ED2B323A031915
:10085800EB2B093A0319F02B1B3A0319ED2B342C17
:10086800300887314527833108002000DB01DB0A87
:100878003030D9007530DA00F030210099002300BB
:100888008C018E01FF3021008C00F7308E003F3044
:1008980024008C000F308E0014303D00A400153069
:1008A8003C00A40010303D00A0001130A10024300D
:1008B80023009E0090309D0008309F0000309C006F
:1008C80044309B00F401F301F20116302100970037
:1008D8006400F5012000ED019112210091160B171B
:1008E8008B1700308E315426843105302000D80013
:1008F8000F30D700F130890B7F2CD70B7F2CD80B0A
:100908007F2CF10105302000D8000F30D700F130DE
:10091800890B8C2CD70B8C2CD80B8C2C25302000D9
:10092800A0009030A100C030D7005708A2008E3137
:10093800D42684318F311A27843164000130200095
:10094800D9070030DA3D75305A02303003195902A0
:10095800031CAF2CB02CBC2C5B0C031C8E11031891
:100968008E155B08013CD7005708DB00D901DA0176
:100978008D31A425843120006D080319C42CC52CA1
:10098800A12C8F316A2784318431D024843120000E
:10099800ED01A12C8031702830308D318E258431C5
:1009A80085315E2584312000C9004908D5005508E5
:1009B800031DDF2CE02CE12C5D2DD60156084A3EA4
:1009C8008600870181010130C9004908D6070A302D
:1009D8005602031CF02CF12CE22CD601FF2C5408F3
:1009E800C90056084A3E860087014908810001303F
:1009F800C9004908D6070A3056020318042D052DE8
:100A0800112D85315E2584312000C9004908D400A4
:100A18005408031D102D112DF32CD60156355C3EBC
:100A280086008701403FA100413FA200550885315B
:100A3800EA258431003A0319222D232D322D4A301C
:100A48002000C9004908B0005635E03E86008701FD
:100A5800413F8A00403F0A0085315D2D013020006A
:100A6800C9004908D60704305602031C3C2D3D2D09
:100A7800122D1330A0009030A100C030C9004908E1
:100A8800A2008E31D42684318F311A278431200078
:100A98005508A700FF39031D0130A8008F314027F2
:100AA80084310D3086317D2684310A3086317D26A9
:100AB80084310800200067080319632D642D662D12
:100AC8000030E92D01308E3172268531003A031944
:100AD8006E2D6F2D702D642D20006A08AB002B0839
:100AE800AD007A2D0130AB002B08EA076A088600B2
:100AF8000130870001080319822D832DB12DB20121
:100B0800B20A6A08860001308700203001060319FE
:100B18008E2D8F2DA42D6A088600013087000108CC
:100B2800F73EAB00FF3003180030AC0000302C0259
:100B3800053003192B02031CA22DA32DA42DB201ED
:100B48003208AB00AC012B08AE002C08AF002E0811
:100B58002F040319B02DB12D762DB301B30A6A08FD
:100B6800860001308700203001060319BC2DBD2DF9
:100B7800D22D6A088600013087000108F73EAB00D5
:100B8800FF3003180030AC0000302C020530031988
:100B98002B02031CD02DD12DD22DB3013308AB006D
:100BA800AC012B08B0002C08B1003008310403193F
:100BB800DE2DDF2DE82D6A088600013087008101CF
:100BC8000130AB002B08EA072D0808002000A5001B
:100BD800A401FA2D0130A3002308A5070130A107BD
:100BE8000030A23D0130A3002308A4072508860091
:100BF8000130870001080319022E032E272E210831
:100C08008400220885000008A3002508860001301A
:100C18008700010823060319122E132EEE2D210832
:100C28008400220885000008A300250886000130FA
:100C3800870001088D31B42585312000230603196A
:100C4800262E272EEE2D2508860001308700010864
:100C5800031D2F2E302E322E2408332E003008008C
:100C68002000A400A3012400161416183C2E3D2EC3
:100C7800392E03142000240D240091001418452E49
:100C8800462E422E8D31C7258631702E0230210224
:100C980003184F2E502E532E24009616552E24003E
:100CA80096129615141C592E5A2E562E16161108E1
:100CB8002000A20020088600870122088100013058
:100CC800A2002208A0070130A2002208A3070130D1
:100CD800A10224001513462E20002108031D752E9D
:100CE800762E4A2E2400161516197B2E7C2E782E69
:100CF80008002000A3007208031D832E842EA02E56
:100D080023009E1C882E892E8E2E20002308230067
:100D18009A00C22EF401F30120002308A2007408EF
:100D2800A03E86008701220881000130A200220827
:100D3800F407F201F20AC22E23088E31F726863113
:100D4800003A031DA82EA92EB82E23009E1CAD2EF6
:100D5800AE2EA92E8E310A26863123009A00200055
:100D680023088E31F726863123009E1CBC2EBD2E0B
:100D7800C22E8E310A26863123009A00080041349B
:100D8800423443344434453446344734483449348F
:100D98004A344B344C344D344E344F34503451343F
:100DA80052345334543455345634573458345934EF
:100DB8005A34613462346334643465346634673475
:100DC800683469346A346B346C346D346E346F341F
:100DD80070347134723473347434753476347734CF
:100DE800783479347A3430343134323433343434F6
:100DF800353436343734383439342B342F340034DE
:100E0800F9007208031D092F0A2F232F23009E1CA7
:100E18000E2F0F2F122F79089A00442FF401F30197
:100E28007908F8007408A03E8600870178088100D8
:100E38000130F8007808F407F201F20A442F790823
:100E48008E3190268731003A031D2B2F2C2F3A2FF5
:100E580023009E1C302F312F2C2F8D31F325873105
:100E680023009A0079088E319026873123009E1C32
:100E78003E2F3F2F442F8D31F325873123009A00D1
:100E880008002000AD000030A0009030A100C03064
:100E9800AB002B08A2008E31D42687318F311A2758
:100EA80087312000AC01712F203086317D268731B3
:100EB80020002C082D07AB002B08860087010108AD
:100EC800A700FF39031D0130A8008F314027873163
:100ED80001302000AB002B08AC072C082D07AB0015
:100EE8002B08860087010108031D7B2F7C2F582FB4
:100EF8000D3086317D2687310A3086317D2687314F
:100F080008002000A6002608A4000430A436890B97
:100F18008A2F2408A5002508A7000A3027020318ED
:100F2800962F972F9C2F3030A4002408A707A02FB6
:100F38003730A4002408A707270886317D26873183
:100F4800200026080F39A4002408A7000A30270229
:100F58000318AF2FB02FB52F3030A4002408A707EF
:100F6800B92F3730A4002408A707270886317D2623
:100F7800873108002000A300240016141618C52F76
:100F8800C62FC22F20002335240091001418CD2F1E
:100F9800CE2FCA2F161BD12FD22FCE2F8D31C7257A
:100FA8008731E92F20088600870101082400910075
:100FB80001302000A2002208A0070130A10224006D
:100FC8001418E72FE82FE32FD22F20002108031D44
:100FD800EE2FEF2FD62F240016151619F42FF52F04
:100FE800F12F08002000A100E8012108A000200836
:060FF800E900E70108001A
:101AF400640080010131890B7B2D0034FE0012004B
:101B04001E00FE0B812D00349E3403343E34023417
:101B1400AC340034F03402342000A3002308A200C3
:101B24002208EA0000308731F6278D3108002B3473
:101B340090343434903430349034383490345834CD
:101B44003A34003472080319A82DA92DB32D2300AB
:101B54009E1CAD2DAE2DB32D8E310A268D31230062
:101B64009A0008002000A00061302002031CBB2D55
:101B7400BC2DC52D7B3020020318C12DC22DC52DCF
:101B84002008E03EC62D2008080024001419CB2D9F
:101B9400CC2DC72D161ACF2DD02DC72D9619D32D88
:101BA400D42DC72D1618D72DD82DC72D1619DB2DDA
:101BB400DC2DC72D08002000A300A201231CE32D67
:101BC400E42DE82D2008A1002108A2070310A00D90
:101BD4000310A30C2308031DF02DF12DE02D220882
:101BE40008007308A03E860087010108F600760805
:101BF400F7000130F6007608F30720307302031C67
:101C0400042E052E062EF3010130F2027708080097
:101C14007308A03E8600870101082000A000200868
:101C2400A1000130A0002008F30720307302031C38
:101C34001C2E1D2E1E2EF3010130F2022108080075
:101C440020002008D03EA200FF30213DA300003038
:101C540023020A3003192202031C312E332E0130D1
:101C6400342E0030A400A5012408A0002508A100FA
:101C7400080020002008BF3EA200FF30213DA30041
:101C8400003023021A3003192202031C4A2E4C2E60
:101C940001304D2E0030A400A5012408A000250821
:101CA400A10008002000A100A2011330A000200818
:101CB400A300210803195F2E602E682E8030A00037
:101CC4002008A2004F30A0002008A300220824000E
:101CD4009400283095002000230824009200080076
:101CE4002000AA0067080319782E792E7B2E670836
:101CF4008F2E2A0803197F2E802E832E8F31CB2717
:101D04008E3120006A08860001308700010803191B
:101D14008C2E8E2E01308F2E00300800F7002030DC
:101D24007202031C962E972E992E0030B12E77083E
:101D3400F6007408A03E8600870176088100013011
:101D4400F6007608F40720307402031CAA2EAB2E8A
:101D5400AC2EF4010130F6007608F20701300800D9
:101D64002000A401A40A2030200621040319BB2E5C
:101D7400BC2ECC2E2008F73EA200FF30213DA3004C
:101D840000302302053003192202031CCA2ECB2E75
:101D9400CC2EA4012408A200A3012208A000230839
:101DA400A1000800E82E200884002108850000080E
:101DB400A300220886008701230881000130A007C0
:101DC4000030A13D0130A3002308A2072000200811
:101DD4008400210885001200031DF12EF22ED52E59
:101DE400220886008701810108002000A10020301C
:101DF4007202031CFE2EFF2E012F0030192F210822
:101E0400A0007408A03E86008701200881000130EC
:101E1400A0002008F40720307402031C122F132F93
:101E2400142FF4010130A0002008F207013008004B
:101E3400C0302000A4002408A6002030A4002408F8
:101E4400A500322F260886008701010886317D26E9
:101E54008F3101302000A4002408A6070130A50218
:101E640025080319362F372F3F2F260886008701B0
:101E74000108031D3E2F3F2F242F0800C0302000EF
:101E8400A9002908AA00592F2708860028088700D6
:101E94000108A9002A088600870129088100013069
:101EA400A7070030A83D0130A9002908AA07270880
:101EB4008600280887000108031D612F622F462F22
:101EC4002A088600870181018F311A278F31080083
:101ED4008B1350302000A0002008A1003030A00057
:101EE4002008A2008B2F21088600013087000108FA
:101EF400A0002208860001308700200881000130FC
:101F0400A0002008A1070130A0002008A20701308A
:101F1400F5027508031D8F2F902F752F2208860058
:101F24000130870081018B1708002000A2002400E3
:101F3400161416189E2F9F2F9B2F20002235240045
:101F440091001418A62FA72FA32F161BAA2FAB2F6F
:101F5400A72F8D31C7258F31200020082400910040
:101F64001418B52FB62FB22F8D31C7258F3120000D
:101F74002108240091001418C02FC12FBD2F8D31CA
:101F8400C7258F31240016151619C92FCA2FC62F3D
:101F94000800D02F0130A5002508EA072000A90178
:101FA400A90A6A0886000130870020300106031957
:101FB400DC2FDD2FF22F6A0886000130870001082C
:101FC400F73EA500FF3003180030A60000302602BB
:101FD400053003192502031CF02FF12FF22FA9015C
:101FE4002908A500A6012508A7002608A800270897
:101FF4002804031DFE2FFF2FCC2F080049346E3414
:10200400763461346C346934643420344134523469
:10201400473455344D3445344E3454343A342034F2
:10202400003455346E346B346E346F3477346E341C
:10203400203463346F346D346D3461346E346434FD
:102044003A34203400344834693421340D340A34A9
:1020540000344534433448344F3400345334453425
:102064005434003447344534543400345834003440
:020000040001F9
:04000E00FCC9FFDF4B
:00000001FF
